{
  "_format": "hh-sol-artifact-1",
  "contractName": "Transaction",
  "sourceName": "contracts/Transaction.sol",
  "abi": [
    {
      "anonymous": false,
      "inputs": [
        {
          "indexed": false,
          "internalType": "address",
          "name": "from",
          "type": "address"
        },
        {
          "indexed": false,
          "internalType": "address",
          "name": "receiver",
          "type": "address"
        },
        {
          "indexed": false,
          "internalType": "uint256",
          "name": "amount",
          "type": "uint256"
        },
        {
          "indexed": false,
          "internalType": "uint256",
          "name": "timestamp",
          "type": "uint256"
        },
        {
          "indexed": false,
          "internalType": "string",
          "name": "keyword",
          "type": "string"
        }
      ],
      "name": "Transfer",
      "type": "event"
    },
    {
      "inputs": [
        {
          "internalType": "address payable",
          "name": "receiver",
          "type": "address"
        },
        {
          "internalType": "uint256",
          "name": "amount",
          "type": "uint256"
        },
        {
          "internalType": "string",
          "name": "keyword",
          "type": "string"
        }
      ],
      "name": "addToBlockChain",
      "outputs": [],
      "stateMutability": "nonpayable",
      "type": "function"
    },
    {
      "inputs": [],
      "name": "getAllTransactions",
      "outputs": [],
      "stateMutability": "nonpayable",
      "type": "function"
    },
    {
      "inputs": [],
      "name": "getTransactionCount",
      "outputs": [],
      "stateMutability": "nonpayable",
      "type": "function"
    }
  ],
  "bytecode": "0x608060405234801561001057600080fd5b506104fc806100206000396000f3fe608060405234801561001057600080fd5b50600436106100415760003560e01c806327506f53146100465780632e7700f014610050578063d5594fb81461005a575b600080fd5b61004e610076565b005b610058610078565b005b610074600480360381019061006f9190610169565b61007a565b005b565b565b600160008082825461008c919061030d565b925050819055507f6f61ee1206c525dcbefe79039d2f7b768c9ad70030c51ae6623cd74492e8a6d333848442856040516100ca959493929190610236565b60405180910390a1505050565b60006100ea6100e5846102c1565b610290565b90508281526020810184848401111561010257600080fd5b61010d8482856103e7565b509392505050565b60008135905061012481610498565b92915050565b600082601f83011261013b57600080fd5b813561014b8482602086016100d7565b91505092915050565b600081359050610163816104af565b92915050565b60008060006060848603121561017e57600080fd5b600061018c86828701610115565b935050602061019d86828701610154565b925050604084013567ffffffffffffffff8111156101ba57600080fd5b6101c68682870161012a565b9150509250925092565b6101d9816103b1565b82525050565b6101e881610363565b82525050565b60006101f9826102f1565b61020381856102fc565b93506102138185602086016103f6565b61021c81610487565b840191505092915050565b610230816103a7565b82525050565b600060a08201905061024b60008301886101df565b61025860208301876101d0565b6102656040830186610227565b6102726060830185610227565b818103608083015261028481846101ee565b90509695505050505050565b6000604051905081810181811067ffffffffffffffff821117156102b7576102b6610458565b5b8060405250919050565b600067ffffffffffffffff8211156102dc576102db610458565b5b601f19601f8301169050602081019050919050565b600081519050919050565b600082825260208201905092915050565b6000610318826103a7565b9150610323836103a7565b9250827fffffffffffffffffffffffffffffffffffffffffffffffffffffffffffffffff0382111561035857610357610429565b5b828201905092915050565b600061036e82610387565b9050919050565b600061038082610387565b9050919050565b600073ffffffffffffffffffffffffffffffffffffffff82169050919050565b6000819050919050565b60006103bc826103c3565b9050919050565b60006103ce826103d5565b9050919050565b60006103e082610387565b9050919050565b82818337600083830152505050565b60005b838110156104145780820151818401526020810190506103f9565b83811115610423576000848401525b50505050565b7f4e487b7100000000000000000000000000000000000000000000000000000000600052601160045260246000fd5b7f4e487b7100000000000000000000000000000000000000000000000000000000600052604160045260246000fd5b6000601f19601f8301169050919050565b6104a181610375565b81146104ac57600080fd5b50565b6104b8816103a7565b81146104c357600080fd5b5056fea26469706673582212200911d0068b3c2a2b2e0a819b1d77e102acee0b75be9a98b9d761b8ec1a7afacb64736f6c63430008000033",
  "linkReferences": {},
  "deployedLinkReferences": {}
}